:020000040800F2
:1000000000200020ED00000845010008450100081F
:1000100045010008450100084501000800000000F6
:100020000000000000000000000000004501000882
:1000300045010008000000004501000845010008D6
:10004000440100084401000844010008440100087C
:10005000440100084401000844010008440100086C
:10006000440100084401000844010008440100085C
:10007000440100084401000844010008440100084C
:0C0080004401000844010008440100088D
:10008C0008B500F05BF81249124BD1F8E024124C81
:10009C0042F00202C1F8E024D3F8002442F001023D
:1000AC00C3F80024D3F8002422F00202C3F8002481
:1000BC00D3F8042422F00102C3F80424204600F0F3
:1000CC0077F8064B00BF1A46013B002AFAD1F5E738
:1000DC000040025800000258200200083F420F0066
:1000EC000F481049104A002302E0D458C45004337E
:1000FC00C4188C42F9D30D4A0D4C002301E0136057
:10010C000432A242FBD30B48016841F47001016038
:10011C00BFF34F8FBFF36F8FFFF7B2FFFEE7000007
:10012C000000002000000020300200080000002029
:10013C000000002088ED00E0FEE700001A494FF0B7
:10014C0040221A4BD1F8E80440F48020C1F8E804AE
:10015C00D1F8E00440F00800C1F8E004D3F8001C2A
:10016C0021F47021C3F8001CD3F8001C41F42021A9
:10017C00C3F8001CD3F8241C21F0FF01C3F8241C85
:10018C00D3F8241C41F07701C3F8241CD2F80438AE
:10019C0043F48013C2F80438D2F8003843F00D034E
:1001AC00C2F80038704700BF0040025800000258E7
:1001BC0084460078F8B14FF040220F4910B4002467
:1001CC0083B0019405E0019B01330193019B8B42A9
:1001DC0003DCD2F81C381B06F5D5C2F82808D2F877
:1001EC001C385B06FBD51CF8010F0028E9D103B0C5
:1001FC005DF8044B7047704780969800F8B500BFC7
:10020C00F8BC08BC9E467047F8B500BFF8BC08BCEB
:04021C009E46704743
:1002200048656C6C6F20576F726C64210D0A00007A
:04000005080000ED02
:00000001FF
